:020000040800F2
:1000000000500020F10D0008CD020008CF020008CA
:10001000D1020008D3020008D50200080000000049
:10002000000000000000000000000000D7020008EF
:10003000D902000800000000DB020008DD02000811
:10004000390E0008390E0008390E0008390E000874
:10005000390E0008390E0008390E0008390E000864
:10006000390E0008390E0008390E0008390E000854
:10007000390E0008390E0008390E0008390E000844
:10008000390E0008390E0008390E0008390E000834
:10009000390E0008390E0008390E0008390E000824
:1000A000390E0008390E0008390E0008390E000814
:1000B000390E0008390E0008390E0008390E000804
:1000C000390E0008390E0008390E0008390E0008F4
:1000D000390E0008390E0008390E0008390E0008E4
:1000E000390E0008390E0008390E00080000000023
:1000F0000000000000000000000000000000000000
:0C01000000000000000000005FF808F1A3
:10010C0010B5054C237833B9044B13B10448AFF345
:10011C0000800123237010BD0C00002000000000A3
:10012C00940E000808B5034B1BB103490348AFF309
:10013C00008008BD0000000010000020940E000894
:10014C0072B6FEE700B591B02822002106A800F097
:10015C0093FE0023019302930393049305930223CC
:10016C00069301230A9310230B9306A800F0A6F91B
:10017C0068B90F2301930021029103910491059119
:10018C0001A800F0DBFB20B911B05DF804FBFFF710
:10019C00D7FFFFF7D5FF08B500F056F9FFF7D2FFF0
:1001AC0000F004F800F036F8FEE7000030B587B038
:1001BC0000240294039404940594144B9A6942F01D
:1001CC0010029A619A6902F010020092009A9A69E0
:1001DC0042F004029A619B6903F004030193019BB2
:1001EC000B4D22464FF40051284600F095FD4FF47C
:1001FC00005302930123039304940223059302A951
:10020C00284600F077FC07B030BD00BF001002405C
:10021C000010014008B50A480A4B03604FF4E13363
:10022C00436000238360C36003610C2242618361DD
:10023C00C36100F0B3F800B908BDFFF781FFFBE71D
:10024C00280000200038014010B586B0002302932E
:10025C000393049305930268174B9A4201D006B09E
:10026C0010BD03F558439A6942F480429A619A6929
:10027C0002F480420092009A9A6942F004029A6158
:10028C009B6903F004030193019B4FF400730293E9
:10029C000223039303230593084C02A9204600F084
:1002AC0029FC4FF48063029300230393049302A967
:1002BC00204600F01FFCD2E7003801400008014046
:1002CC00FEE7FEE7FEE7FEE7FEE770477047704784
:1002DC0008B500F0CBF808BD82B00A4B9A6942F021
:1002EC0001029A619A6902F001020092009ADA699D
:1002FC0042F08052DA61DB6903F080530193019B79
:10030C0002B070470010024010B504460268136931
:10031C0023F44053C1680B43136183680269134390
:10032C0042691A430168CB6823F4B05323F00C03E1
:10033C001343CB600268536923F4407381690B4308
:10034C0053610268134B9A4220D000F0B3FB024673
:10035C0002EB820202EB820263689B00B2FBF3F2B7
:10036C000D48A0FB02314909642303FB11231B0137
:10037C003233A0FB03235B0903F0F00202EB011202
:10038C0003F00F03216813448B6010BD00F0A2FB37
:10039C000246DDE7003801401F85EB5158B310B51C
:1003AC00044690F83D300BB3242384F83D3022688A
:1003BC00D36823F40053D3602046FFF7A5FF2268CF
:1003CC00136923F4904313612268536923F02A03C1
:1003DC0053612268D36843F40053D3600020206437
:1003EC00202384F83D3084F83E3010BD80F83C303A
:1003FC00FFF72AFFD8E701207047000010B504462C
:10040C000E4B18784FF47A73B3FBF0F30C4A106868
:10041C00B0FBF3F000F0D0FC68B90F2C01D901202F
:10042C000AE0002221464FF0FF3000F08DFC054B16
:10043C001C60002000E0012010BD00BF0000002067
:10044C00080000200400002008B5074A136843F098
:10045C0010031360032000F065FC0F20FFF7CEFFA4
:10046C00FFF73AFF002008BD00200240034A116844
:10047C00034B1B780B441360704700BF6C000020CB
:10048C0000000020014B1868704700BF6C00002072
:10049C0082B0084B1B68084AA2FB03235B0A00FBD3
:1004AC0003F3019300BF019B5A1E0192002BF9D15B
:1004BC0002B0704708000020D34D6210002800F0F5
:1004CC00F18170B582B00446036813F0010F2CD093
:1004DC00994B5B6803F00C03042B1DD0964B5B68A7
:1004EC0003F00C03082B12D06368B3F5803F41D0A6
:1004FC00002B55D103F1804303F504331A6822F421
:10050C0080321A601A6822F480221A6037E08A4B13
:10051C005B6813F4803FE7D0874B1B6813F4003FF4
:10052C0003D06368002B00F0BF81236813F0020F27
:10053C0075D0814B5B6813F00C0F5FD07E4B5B6802
:10054C0003F00C03082B54D02369002B00F08A8095
:10055C007A4B01221A60FFF795FF0546764B1B6814
:10056C0013F0020F75D1FFF78DFF401B0228F5D950
:10057C0003209EE1704A136843F480331360636870
:10058C0043B3FFF77FFF05466B4B1B6813F4003F2B
:10059C00CBD1FFF777FF401B6428F5D9032088E106
:1005AC00B3F5A02F09D0644B1A6822F480321A607C
:1005BC001A6822F480221A60E1E703F18043A3F564
:1005CC003C331A6842F480221A601A6842F4803272
:1005DC001A60D4E7FFF756FF0546574B1B6813F418
:1005EC00003FA2D0FFF74EFF401B6428F5D9032033
:1005FC005FE1514B5B6813F4803FA5D14E4B1B68F8
:10060C0013F0020F03D02369012B40F04F814A4AAB
:10061C00136823F0F803616943EAC103136023688C
:10062C0013F0080F33D0A369002B5CD0434B01228D
:10063C00C3F88024FFF726FF05463F4B5B6A13F097
:10064C00020F21D1FFF71EFF401B0228F5D9032012
:10065C002FE1394A136823F0F803616943EAC103B7
:10066C001360DCE7354B00221A60FFF70BFF0546E1
:10067C00314B1B6813F0020FD1D0FFF703FF401B67
:10068C000228F5D9032014E10120FFF701FF2368AC
:10069C0013F0040F00F09680274BDB6913F0805F9A
:1006AC0034D1254BDA6942F08052DA61DB6903F010
:1006BC0080530193019B0125214B1B6813F4807F10
:1006CC0026D0E368012B3DD0002B53D103F180439E
:1006DC0003F504331A6A22F001021A621A6A22F034
:1006EC0004021A6233E0154B0022C3F88024FFF792
:1006FC00C9FE0546104B5B6A13F0020FC7D0FFF71B
:10070C00C1FE401B0228F5D90320D2E00025D3E717
:10071C000B4A136843F480731360FFF7B3FE06466D
:10072C00074B1B6813F4807FCBD1FFF7ABFE801B0C
:10073C006428F5D90320BCE00010024000004242BE
:10074C00007000405F4A136A43F001031362E368D0
:10075C0033B3FFF797FE06465A4B1B6A13F0020F92
:10076C002FD1FFF78FFE801B41F288339842F3D9CB
:10077C0003209EE0052B09D0524B1A6A22F001028D
:10078C001A621A6A22F004021A62E0E74D4B1A6AE6
:10079C0042F004021A621A6A42F001021A62D6E7A7
:1007AC00FFF770FE0646474B1B6A13F0020F08D08A
:1007BC00FFF768FE801B41F288339842F3D903207F
:1007CC0077E0E5B9E369002B72D03E4A526802F03B
:1007DC000C02082A56D0022B17D03B4B00221A666B
:1007EC00FFF750FE0446374B1B6813F0007F47D0D1
:1007FC00FFF748FE001B0228F5D9032059E0314AC7
:10080C00D36923F08053D361DCE72F4B00221A66A7
:10081C00FFF738FE05462B4B1B6813F0007F06D004
:10082C00FFF730FE401B0228F5D9032041E0236A74
:10083C00B3F5803F1AD023494B6823F47413226A12
:10084C00606A024313434B601F4B01221A66FFF789
:10085C0019FE04461B4B1B6813F0007F0ED1FFF7EB
:10086C0011FE001B0228F5D9032022E0154A53681B
:10087C0023F40033A1680B435360DCE7002018E03D
:10088C00002016E0012B16D00E4B5B6803F4803170
:10089C00226A914211D103F47013626A93420ED111
:1008AC00002006E001207047012002E0012000E05A
:1008BC00002002B070BD0120FBE70120F9E7012008
:1008CC00F7E700BF001002400000424286B0174B11
:1008DC000FCB0DF1180C0CE90F0040F20123ADF811
:1008EC000430134B5B6803F00C02082A02D0114849
:1008FC0006B07047C3F3834218326A4412F8100CE6
:10090C0013F4803F0DD00A4B5B68C3F3404318339C
:10091C006B4413F8143C074A02FB00F0B0FBF3F0F5
:10092C00E6E7054B03FB00F0E2E700BFAC0E000866
:10093C000010024000127A0000093D00002800F06F
:10094C00A08070B50D460446524B1B6803F007039C
:10095C008B420BD24F4A136823F007030B431360EF
:10096C00136803F007038B4240F08D80236813F06B
:10097C00020F17D013F0040F04D0474A536843F406
:10098C00E0635360236813F0080F04D0424A5368A5
:10099C0043F460535360404A536823F0F003A1685A
:1009AC000B435360236813F0010F31D06368012BA4
:1009BC0020D0022B25D0384A126812F0020F64D0D6
:1009CC0035494A6822F0030213434B60FFF75AFD86
:1009DC000646314B5B6803F00C036268B3EB820F85
:1009EC0016D0FFF74FFD801B41F288339842F0D9A7
:1009FC00032045E0284A126812F4003FE0D10120A0
:100A0C003EE0254A126812F0007FD9D1012037E070
:100A1C00204B1B6803F00703AB420AD91D4A13682D
:100A2C0023F007032B431360136803F00703AB4257
:100A3C002DD1236813F0040F06D0174A536823F402
:100A4C00E063E1680B435360236813F0080F07D091
:100A5C00114A536823F46053216943EAC10353607C
:100A6C00FFF734FF0C4B5B68C3F303130B4AD35CE7
:100A7C00D8400B4B18600B4B1868FFF7BFFC0020DD
:100A8C0070BD012070470120FAE70120F8E7012032
:100A9C00F6E700BF0020024000100240C00E000824
:100AAC000800002004000020014B1868704700BFAC
:100ABC000800002008B5FFF7F7FF044B5B68C3F391
:100ACC000223034AD35CD84008BD00BF001002408B
:100ADC00D00E000808B5FFF7E7FF044B5B68C3F3C3
:100AEC00C223034AD35CD84008BD00BF00100240AB
:100AFC00D00E000870B582B00024A446A6E0804D4C
:100B0C00AA4210D007D97F4DAA420CD005F58035EA
:100B1C00AA4208D013E0A5F58015AA4203D005F52A
:100B2C007025AA4207D18A68002A58D0012A51D0D0
:100B3C004361082403E0A5F58015AA42F3D0BEF169
:100B4C00FF0F4ED80646BEF1FF0F4CD84FEA8C0271
:100B5C0033680F25954023EA050304FA02F2134388
:100B6C0033604B6813F0805F6ED0674B9A6942F02C
:100B7C0001029A619B6903F001030193019B4FEA07
:100B8C009C02951C614B53F825600CF003039D00EF
:100B9C000F23AB4026EA03065D4B984229D003F5A0
:100BAC008063984200F08E8003F58063984200F0D9
:100BBC008B8003F58063984219D004231AE0CC682B
:100BCC00BDE7CC680434BAE7CC680834B7E7CC6826
:100BDC000C34B4E703610824B1E70024AFE7042424
:100BEC00ADE7061DAFE7ACF108029200B0E70323B6
:100BFC0000E00023AB4033430232444D45F8223031
:100C0C004B6813F4803F61D0424A136843EA0E03E9
:100C1C0013604B6813F4003F5ED03E4A536843EABE
:100C2C000E0353604B6813F4801F5BD0394A9368F2
:100C3C0043EA0E0393604B6813F4001F58D0354AF7
:100C4C00D36843EA0E03D3600CF1010C0A6832FA44
:100C5C000CF353D0012303FA0CF302EA030E33EA2C
:100C6C000202F1D14A68122A3FF649AF122A3FF626
:100C7C0066AF01A555F822F0330B0008CB0B00082A
:100C8C00D50B0008E70B00084B0B00084B0B0008BA
:100C9C004B0B00084B0B00084B0B00084B0B0008D0
:100CAC004B0B00084B0B00084B0B00084B0B0008C0
:100CBC004B0B00084B0B00084B0B0008CF0B00082C
:100CCC00DB0B0008012395E7022393E7114A136815
:100CDC0023EA0E0313609CE70E4A536823EA0E03C3
:100CEC0053609FE70B4A936823EA0E039360A2E7D5
:100CFC00084AD36823EA0E03D360A5E702B070BD9F
:100D0C0000002210000031100010024000000140D1
:100D1C0000080140000401400AB101617047090458
:100D2C0001617047074AD36823F4E0631B041B0C72
:100D3C00000200F4E060034343F0BF6343F400336C
:100D4C00D360704700ED00E000B5194BDB68C3F3CE
:100D5C000223C3F1070CBCF1040F28BF4FF0040CA5
:100D6C0003F1040EBEF1060F18D9033B4FF0FF3E02
:100D7C000EFA0CFC21EA0C0199400EFA03F322EA5C
:100D8C000303194300280BDB0901C9B200F16040D1
:100D9C0000F5614080F800135DF804FB0023E5E7E3
:100DAC0000F00F000901C9B2024B1954F4E700BF5F
:100DBC0000ED00E014ED00E00138B0F1807F0BD2C3
:100DCC004FF0E0235861054AF02182F823100020EF
:100DDC00986107221A6170470120704700ED00E00E
:100DEC00704700000C480D490D4A002302E0D4580E
:100DFC00C4500433C4188C42F9D30A4A0A4C002359
:100E0C0001E013600432A242FBD3FFF7E9FF00F0CC
:100E1C000FF8FFF7C0F97047000000200C0000200D
:100E2C00E00E00080C00002070000020FEE700001F
:100E3C0070B500260C4D0D4C641BA410A64209D1B4
:100E4C0000F022F800260A4D0A4C641BA410A6429E
:100E5C0005D170BD55F8043B98470136EEE755F8BF
:100E6C00043B98470136F2E7D80E0008D80E00086C
:100E7C00D80E0008DC0E000803460244934200D151
:100E8C00704703F8011BF9E7F8B500BFF8BC08BCC4
:100E9C009E467047F8B500BFF8BC08BC9E4670472C
:100EAC0002030405060708090A0B0C0D0E0F10109F
:100EBC00000000000000000000000000010203041C
:0C0ECC00060708090000000001020304F2
:040ED80031010008DC
:040EDC000D010008FC
:0C0EE00001000000100000000024F400DD
:0400000508000DF1F1
:00000001FF
